{
  "contractName": "EtherStore",
  "abi": [
    {
      "constant": false,
      "inputs": [],
      "name": "withdrawBalance",
      "outputs": [],
      "payable": false,
      "stateMutability": "nonpayable",
      "type": "function"
    }
  ],
  "bytecode": "0x608060405234801561001057600080fd5b50610189806100206000396000f3fe608060405260043610610041576000357c0100000000000000000000000000000000000000000000000000000000900463ffffffff1680635fd8c71014610046575b600080fd5b34801561005257600080fd5b5061005b61005d565b005b60008060003373ffffffffffffffffffffffffffffffffffffffff1673ffffffffffffffffffffffffffffffffffffffff16815260200190815260200160002054905060003373ffffffffffffffffffffffffffffffffffffffff168260405180600001905060006040518083038185875af1925050503d8060008114610100576040519150601f19603f3d011682016040523d82523d6000602084013e610105565b606091505b5050905080151561011557600080fd5b60008060003373ffffffffffffffffffffffffffffffffffffffff1673ffffffffffffffffffffffffffffffffffffffff16815260200190815260200160002081905550505056fea165627a7a723058203c901b55a1f6c8ce91094f1974aee246b957c67ad39aa2d8b5d354b665372d410029",
  "source": "// From https://github.com/sigp/solidity-security-blog\n// Re-Entrancy\n\npragma solidity ^0.5.0;\n\ncontract EtherStore {\n    mapping(address => uint256) private userBalances;\n\n    function withdrawBalance() public {\n        uint256 amountToWithdraw = userBalances[msg.sender];\n        (bool success, ) = msg.sender.call.value(amountToWithdraw)(\"\"); // At this point, the caller's code is executed, and can call withdrawBalance again\n        require(success);\n        userBalances[msg.sender] = 0;\n    }\n}\n",
  "sourcePath": "/Users/veronicazheng/src/smart-contracts-testing/contracts/reentrancy/EtherStore.sol",
  "compiler": {
    "name": "solc",
    "version": "0.5.0+commit.1d4f565a.Emscripten.clang"
  },
  "schemaVersion": "3.0.1",
  "updatedAt": "2019-11-24T21:13:00.264Z",
  "devdoc": {
    "methods": {}
  },
  "userdoc": {
    "methods": {}
  }
}