{
  "contractName": "MetaCoin",
  "abi": [
    {
      "inputs": [
        {
          "name": "owner",
          "type": "address"
        }
      ],
      "payable": false,
      "stateMutability": "nonpayable",
      "type": "constructor",
      "signature": "constructor"
    },
    {
      "anonymous": false,
      "inputs": [
        {
          "indexed": true,
          "name": "_from",
          "type": "address"
        },
        {
          "indexed": true,
          "name": "_to",
          "type": "address"
        },
        {
          "indexed": false,
          "name": "_value",
          "type": "uint256"
        }
      ],
      "name": "Transfer",
      "type": "event",
      "signature": "0xddf252ad1be2c89b69c2b068fc378daa952ba7f163c4a11628f55a4df523b3ef"
    },
    {
      "constant": false,
      "inputs": [
        {
          "name": "receiver",
          "type": "address"
        },
        {
          "name": "amount",
          "type": "uint256"
        }
      ],
      "name": "sendCoin",
      "outputs": [
        {
          "name": "sufficient",
          "type": "bool"
        }
      ],
      "payable": false,
      "stateMutability": "nonpayable",
      "type": "function",
      "signature": "0x90b98a11"
    },
    {
      "constant": true,
      "inputs": [
        {
          "name": "addr",
          "type": "address"
        }
      ],
      "name": "getBalanceInEth",
      "outputs": [
        {
          "name": "",
          "type": "uint256"
        }
      ],
      "payable": false,
      "stateMutability": "view",
      "type": "function",
      "signature": "0x7bd703e8"
    },
    {
      "constant": true,
      "inputs": [
        {
          "name": "addr",
          "type": "address"
        }
      ],
      "name": "getBalance",
      "outputs": [
        {
          "name": "",
          "type": "uint256"
        }
      ],
      "payable": false,
      "stateMutability": "view",
      "type": "function",
      "signature": "0xf8b2cb4f"
    }
  ],
  "bytecode": "0x608060405234801561001057600080fd5b506040516020806104bc8339810180604052602081101561003057600080fd5b81019080805190602001909291905050506127106000808373ffffffffffffffffffffffffffffffffffffffff1673ffffffffffffffffffffffffffffffffffffffff1681526020019081526020016000208190555050610426806100966000396000f3fe608060405260043610610057576000357c0100000000000000000000000000000000000000000000000000000000900463ffffffff1680637bd703e81461005c57806390b98a11146100c1578063f8b2cb4f14610134575b600080fd5b34801561006857600080fd5b506100ab6004803603602081101561007f57600080fd5b81019080803573ffffffffffffffffffffffffffffffffffffffff169060200190929190505050610199565b6040518082815260200191505060405180910390f35b3480156100cd57600080fd5b5061011a600480360360408110156100e457600080fd5b81019080803573ffffffffffffffffffffffffffffffffffffffff16906020019092919080359060200190929190505050610259565b604051808215151515815260200191505060405180910390f35b34801561014057600080fd5b506101836004803603602081101561015757600080fd5b81019080803573ffffffffffffffffffffffffffffffffffffffff1690602001909291905050506103b2565b6040518082815260200191505060405180910390f35b600073__ConvertLib____________________________6396e4ee3d6101be846103b2565b60026040518363ffffffff167c0100000000000000000000000000000000000000000000000000000000028152600401808381526020018281526020019250505060206040518083038186803b15801561021757600080fd5b505af415801561022b573d6000803e3d6000fd5b505050506040513d602081101561024157600080fd5b81019080805190602001909291905050509050919050565b6000816000803373ffffffffffffffffffffffffffffffffffffffff1673ffffffffffffffffffffffffffffffffffffffff1681526020019081526020016000205410156102aa57600090506103ac565b816000803373ffffffffffffffffffffffffffffffffffffffff1673ffffffffffffffffffffffffffffffffffffffff16815260200190815260200160002060008282540392505081905550816000808573ffffffffffffffffffffffffffffffffffffffff1673ffffffffffffffffffffffffffffffffffffffff168152602001908152602001600020600082825401925050819055508273ffffffffffffffffffffffffffffffffffffffff163373ffffffffffffffffffffffffffffffffffffffff167fddf252ad1be2c89b69c2b068fc378daa952ba7f163c4a11628f55a4df523b3ef846040518082815260200191505060405180910390a3600190505b92915050565b60008060008373ffffffffffffffffffffffffffffffffffffffff1673ffffffffffffffffffffffffffffffffffffffff16815260200190815260200160002054905091905056fea165627a7a72305820ff2e8f309d2555e54edbb680b8403fad77e6c2b810aea7c2ee9bdf995a25265c0029",
  "source": "// From https://github.com/truffle-box/metacoin-box\n\npragma solidity ^0.5.0;\n\nimport \"./ConvertLib.sol\";\n\ncontract MetaCoin {\n    mapping(address => uint256) private balances;\n\n    event Transfer(address indexed _from, address indexed _to, uint256 _value);\n\n    constructor(address owner) public {\n        balances[owner] = 10000;\n    }\n\n    function sendCoin(address receiver, uint256 amount)\n        public\n        returns (bool sufficient)\n    {\n        if (balances[msg.sender] < amount) return false;\n        balances[msg.sender] -= amount;\n        balances[receiver] += amount;\n        emit Transfer(msg.sender, receiver, amount);\n        return true;\n    }\n\n    function getBalanceInEth(address addr) public view returns (uint256) {\n        return ConvertLib.convert(getBalance(addr), 2);\n    }\n\n    function getBalance(address addr) public view returns (uint256) {\n        return balances[addr];\n    }\n}\n",
  "sourcePath": "/Users/veronicazheng/src/smart-contracts-testing/contracts/truffle-examples/MetaCoin.sol",
  "compiler": {
    "name": "solc",
    "version": "0.5.0+commit.1d4f565a.Emscripten.clang"
  },
  "schemaVersion": "3.0.1",
  "updatedAt": "2019-11-24T21:38:18.823Z",
  "devdoc": {
    "methods": {}
  },
  "userdoc": {
    "methods": {}
  }
}