{
  "contractName": "Roulette",
  "abi": [
    {
      "inputs": [],
      "payable": true,
      "stateMutability": "payable",
      "type": "constructor"
    },
    {
      "payable": true,
      "stateMutability": "payable",
      "type": "fallback"
    },
    {
      "constant": true,
      "inputs": [],
      "name": "pastBlockTime",
      "outputs": [
        {
          "internalType": "uint256",
          "name": "",
          "type": "uint256"
        }
      ],
      "payable": false,
      "stateMutability": "view",
      "type": "function"
    }
  ],
  "bytecode": "0x6080604052610118806100136000396000f3fe608060405260043610601c5760003560e01c806358d02b091460b5575b678ac7230489e800003414602f57600080fd5b600054421415603d57600080fd5b426000819055506000600f4281604f57fe5b06141560b3573373ffffffffffffffffffffffffffffffffffffffff166108fc3073ffffffffffffffffffffffffffffffffffffffff16319081150290604051600060405180830381858888f1935050505015801560b1573d6000803e3d6000fd5b505b005b34801560c057600080fd5b5060c760dd565b6040518082815260200191505060405180910390f35b6000548156fea265627a7a72315820e06c4ff6caca8d23aab2028b53f541ea7e65ad4ccaa4d8425ea47f1a4dd04fc064736f6c634300050c0032",
  "source": "// From https://github.com/sigp/solidity-security-blog\n// Block time manipulation\n\n// block.timestamp or its alias now can be manipulated by miners if they have some incentive to do so.\n// Fix: use block.number and an average block time to estimate times\n\npragma solidity ^0.5.0;\n\ncontract Roulette {\n    uint256 public pastBlockTime; // Forces one bet per block\n\n    constructor() public payable {} // initially fund contract\n\n    // fallback function used to make a bet\n    function() external payable {\n        require(msg.value == 10 ether); // must send 10 ether to play\n        require(now != pastBlockTime); // only 1 transaction per block\n        pastBlockTime = now;\n        if (now % 15 == 0) {\n            // winner\n            msg.sender.transfer(address(this).balance);\n        }\n    }\n}\n",
  "sourcePath": "/Users/veronicazheng/src/smart-contracts-testing/contracts/solhint-examples/Roulette.sol",
  "compiler": {
    "name": "solc",
    "version": "0.5.12+commit.7709ece9.Emscripten.clang"
  },
  "schemaVersion": "3.0.19",
  "updatedAt": "2019-11-25T17:21:16.078Z",
  "devdoc": {
    "methods": {}
  },
  "userdoc": {
    "methods": {}
  }
}