{
  "contractName": "UnusedReturn",
  "abi": [
    {
      "constant": true,
      "inputs": [
        {
          "internalType": "uint256",
          "name": "a",
          "type": "uint256"
        },
        {
          "internalType": "uint256",
          "name": "b",
          "type": "uint256"
        }
      ],
      "name": "my_func",
      "outputs": [],
      "payable": false,
      "stateMutability": "pure",
      "type": "function"
    }
  ],
  "bytecode": "0x608060405234801561001057600080fd5b5061013d806100206000396000f3fe608060405234801561001057600080fd5b506004361061002b5760003560e01c806388e5387114610030575b600080fd5b6100666004803603604081101561004657600080fd5b810190808035906020019092919080359060200190929190505050610068565b005b61007b818361008090919063ffffffff16565b505050565b6000808284019050838110156100fe576040517f08c379a000000000000000000000000000000000000000000000000000000000815260040180806020018281038252601b8152602001807f536166654d6174683a206164646974696f6e206f766572666c6f77000000000081525060200191505060405180910390fd5b809150509291505056fea265627a7a72315820dee8b0595494e8669d3c8d7ced6f5a30a32c0ca0f6dd0584674989c80eeac31264736f6c634300050c0032",
  "source": "// From https://github.com/crytic/slither/wiki/Detector-Documentation\n// Unused return\n\npragma solidity ^0.5.0;\n\nimport \"@openzeppelin/contracts/math/SafeMath.sol\";\n\ncontract UnusedReturn {\n    using SafeMath for uint256;\n\n    function my_func(uint256 a, uint256 b) public pure {\n        // return unused\n        a.add(b);\n    }\n}\n",
  "sourcePath": "/Users/veronicazheng/src/smart-contracts-testing/contracts/slither-examples/UnusedReturn.sol",
  "compiler": {
    "name": "solc",
    "version": "0.5.12+commit.7709ece9.Emscripten.clang"
  },
  "schemaVersion": "3.0.19",
  "updatedAt": "2019-11-25T08:56:43.851Z",
  "devdoc": {
    "methods": {}
  },
  "userdoc": {
    "methods": {}
  }
}