{
  "contractName": "UnusedReturn",
  "abi": [
    {
      "constant": true,
      "inputs": [
        {
          "name": "a",
          "type": "uint256"
        },
        {
          "name": "b",
          "type": "uint256"
        }
      ],
      "name": "my_func",
      "outputs": [],
      "payable": false,
      "stateMutability": "pure",
      "type": "function"
    }
  ],
  "bytecode": "0x608060405234801561001057600080fd5b50610159806100206000396000f3fe608060405260043610610041576000357c0100000000000000000000000000000000000000000000000000000000900463ffffffff16806388e5387114610046575b600080fd5b34801561005257600080fd5b506100896004803603604081101561006957600080fd5b81019080803590602001909291908035906020019092919050505061008b565b005b61009e81836100a390919063ffffffff16565b505050565b6000808284019050838110151515610123576040517f08c379a000000000000000000000000000000000000000000000000000000000815260040180806020018281038252601b8152602001807f536166654d6174683a206164646974696f6e206f766572666c6f77000000000081525060200191505060405180910390fd5b809150509291505056fea165627a7a72305820b2dc78350951f335942d64d823793455b460df74dfc1c5f8153a9bd358c62b5e0029",
  "source": "// From https://github.com/crytic/slither/wiki/Detector-Documentation\n// Unused return\n\npragma solidity ^0.5.0;\n\nimport \"@openzeppelin/contracts/math/SafeMath.sol\";\n\ncontract UnusedReturn {\n    using SafeMath for uint256;\n\n    function my_func(uint256 a, uint256 b) public pure {\n        // return unused\n        a.add(b);\n    }\n}\n",
  "sourcePath": "/Users/veronicazheng/src/smart-contracts-testing/contracts/slither-examples/UnusedReturn.sol",
  "compiler": {
    "name": "solc",
    "version": "0.5.0+commit.1d4f565a.Emscripten.clang"
  },
  "schemaVersion": "3.0.1",
  "updatedAt": "2019-11-24T21:13:00.263Z",
  "devdoc": {
    "methods": {}
  },
  "userdoc": {
    "methods": {}
  }
}